:020000040000FA
:10000000F06A00206D0200008102000083020000FF
:10001000850200008502000085020000000000004B
:100020000000000000000000000000008502000049
:10003000850200000000000085020000850200002B
:100040008502000085020000850200008502000094
:100050008502000085020000850200008502000084
:100060008502000085020000850200008502000074
:100070008502000085020000850200008502000064
:100080008502000085020000850200008502000054
:100090008502000085020000850200008502000044
:1000A0008502000085020000850200008502000034
:1000B0008502000085020000850200008502000024
:1000C0008502000085020000850200008502000014
:1000D0008502000085020000850200008502000004
:1000E000850200008502000000000000850200007B
:1000F00085020000850200008502000085020000E4
:1001000085020000850200008502000085020000D3
:1001100000000000000000008502000085020000D1
:1001200085020000850200008502000085020000B3
:1001300085020000850200008502000085020000A3
:1001400000000000000000000000000000000000AF
:100150008502000085020000850200008502000083
:10016000000000000000000000000000000000008F
:10017000000000000000000000000000000000007F
:10018000000000000000000000000000000000006F
:10019000000000000000000000000000000000005F
:1001A000000000000000000000000000000000004F
:1001B0008502000085020000850200008502000023
:1001C0008502000085020000850200008502000013
:1001D0008502000085020000850200008502000003
:1001E000850200008502000085020000000000007A
:1001F000000000008502000085020000850200006A
:1002000085020000850200000000000000000000E0
:1002100085020000850200008502000085020000C2
:1002200085020000850200008502000085020000B2
:1002300085020000850200008502000085020000A2
:100240008502000085020000850200008502000092
:100250008502000085020000850200008502000082
:100260008502000085020000850200004EF68850DD
:10027000CEF20000016841F47001016000F004B8A2
:10028000FEE7FEE7FEE7000000F002F800F05CF891
:100290000AA090E8000C82448344AAF10107DA45E1
:1002A00001D100F051F8AFF2090EBAE80F0013F0D7
:1002B000010F18BFFB1A43F001031847703D0200FD
:1002C000903D02000A444FF0000C10F8013B13F07F
:1002D000070408BF10F8014B1D1108BF10F8015B9F
:1002E000641E05D010F8016B641E01F8016BF9D192
:1002F00013F0080F1EBF10F8014BAD1C0C1B09D1E9
:100300006D1E58BF01F801CBFAD505E014F8016B5A
:1003100001F8016B6D1EF9D59142D6D370470000EC
:100320000023002400250026103A28BF78C1FBD8FE
:10033000520728BF30C148BF0B6070471FB521F07E
:1003400006FB1FBD10B510BD00F013F91146FFF7F5
:10035000F5FF1EF0D5FC00F031F903B4FFF7F2FF12
:1003600003BC00F031F90000EFF3108072B6704763
:10037000EFF310807047EFF3108062B6704730BF24
:10038000704780F311887047EFF3118070470000C9
:100390000138FDD17047000002480349034A044B6D
:1003A00070470000F0640020F06A0020F066002032
:1003B000F0660020032A40F2308010F0030C00F0B9
:1003C000158011F8013BBCF1020F624498BF11F88F
:1003D00001CB00F8013B38BF11F8013BA2F1040248
:1003E00098BF00F801CB38BF00F8013B11F00303C0
:1003F00000F02580083AC0F0088051F8043B083A24
:1004000051F804CBA0E80810F5E7121D5CBF51F8C5
:10041000043B40F8043BAFF30080D20724BF11F83F
:10042000013B11F801CB48BF11F8012B24BF00F8A4
:10043000013B00F801CB48BF00F8012B704710B515
:10044000203AC0F00B80B1E81850203AA0E81850CC
:10045000B1E81850A0E81850BFF4F5AF5FEA027C8D
:1004600024BFB1E81850A0E8185044BF18C918C0FC
:10047000BDE810405FEA827C24BF51F8043B40F89D
:10048000043B08BF7047D20728BF31F8023B48BF82
:1004900011F8012B28BF20F8023B48BF00F8012BC0
:1004A000704702F0FF0343EA032242EA024200F0EF
:1004B00002B84FF000020429C0F0128010F0030CC3
:1004C00000F01B80CCF1040CBCF1020F18BF00F847
:1004D000012BA8BF20F8022BA1EB0C0100F00DB8F6
:1004E0005FEAC17C24BF00F8012B00F8012B48BF54
:1004F00000F8012B70474FF0000200B513469446F8
:100500009646203922BFA0E80C50A0E80C50B1F16B
:100510002001BFF4F7AF090728BFA0E80C5048BF7F
:100520000CC05DF804EB890028BF40F8042B08BF1D
:10053000704748BF20F8022B11F0804F18BF00F819
:10054000012B704770477047704710B500F00CF8EA
:10055000006810BD10B5044600F006F8046010BD38
:100560000048704790640020004870479064002065
:1005700070477546FFF7F4FFAE46050069465346DF
:1005800020F00700854618B020B5FFF705FFBDE84D
:1005900020404FF000064FF000074FF000084FF0EA
:1005A000000B21F00701AC46ACE8C009ACE8C0097B
:1005B000ACE8C009ACE8C0098D4670470446AFF30B
:1005C00000802046FFF7C9FE01491820ABBEFEE7B8
:1005D0002600020010B5064817F00EF90021054864
:1005E00000F00CF8044A0021024800F04DF810BD5C
:1005F0002C460020008003400C46002001228A4047
:10060000C260704701228A40C260826801238B4029
:100610001A438260704782680A43826070472DE9FE
:10062000F04105460E461446314628461BF05CFB59
:1006300007462146384607F0E7FB384607F072FBCD
:10064000BDE8F08110B50A0C120401F00F0401237B
:10065000A3401A43836A1A43826210BD30B58900F1
:1006600044690F258D40AC4302F00F058D402C43AB
:100670004461056A0F248C4025EA040403F0030555
:100680008D402C43046230BD10B503464C0140340C
:100690002344002002E09C6810C2401CDC6804F483
:1006A00080740CB90828F6D310BD026801238B4072
:1006B0001A430260704770B50C4665014035284406
:1006C000920005680F269640B54303F00F0696404A
:1006D0003543056086690F25954026EA0505C3F375
:1006E000032696403543856146680F25954026EAE6
:1006F0000505C3F3031696403543456003F47025A2
:1007000075B141690F259540A943C3F30245954052
:10071000294341610669012595402E43066104E0A5
:10072000066901259540AE43066170BD1048114928
:100730004860082088600120487088700C480E4985
:1007400048600820886001204870887008480B497C
:100750004860082088600120487088700448084973
:100760004860082088600120487088707047000049
:1007700000700040E8630020086400202864002026
:1007800048640020524890ED010AB8EE400ADFEDBF
:10079000510A20EE200ADFED500A80EE201A4F4861
:1007A00080ED001A90ED000AF6EE000AB4EEE00AC1
:1007B000F1EE10FA03D80020494908703AE04748A2
:1007C00090ED000ADFED470AB4EEE00AF1EE10FA10
:1007D00003D80420424908702CE0404890ED000AFC
:1007E000DFED410AB4EEE00AF1EE10FA03D803207F
:1007F0003B4908701EE0394890ED000ADFED3B0AE6
:10080000B4EEE00AF1EE10FA03D802203449087081
:1008100010E0324890ED000AF0EE0A0AB4EEE00A69
:10082000F1EE10FA03D801202D49087002E00020F3
:100830002B4908702A48007805283CD2DFE800F0F0
:10084000030D1824300001202949487029494870B7
:10085000294948702949487037E0002024494870E8
:1008600001202449487024494870244948702CE0EC
:1008700001201F49487000201E49487001201E4970
:1008800048701E49487020E00120194948701949F4
:10089000487000201849487001201849487014E039
:1008A00001201349487013494870134948700020CB
:1008B0001249487009E001200D4948700D494870FF
:1008C0000D4948700D49487000BF00BF70470000D7
:1008D0000C4600203333534000F07F45380500209C
:1008E0000E0F00209A99993FCDCCEC3F9A99294060
:1008F000E863002008640020286400204864002089
:1009000010B5FFF73FFF13F071FE10BD10B523487F
:1009100016F014FA00BF214816F02AFA0028FAD07F
:100920001F4816F00BFA08211E4805F0CBFD1C48A5
:10093000401E16F003FA08211B4805F0C3FD0023F2
:100940001A4619461948FFF789FE00231A46194628
:100950001648FFF7B0FE6423012200211348FFF779
:10096000AAFE00211148FFF749FE00210F48FFF7BA
:100970009CFE00210D48FFF745FE01210B48FFF7C3
:100980004AFE1E2007F0CEF9094A00210748FFF76A
:1009900046FEE0211E2007F01DFA10BD003800F0D1
:1009A000040800F000400240007000400080034056
:1009B000D505000010B509480088401C074908808B
:1009C00008460088022800DC10BD0020034908808A
:1009D00000210348FFF736FE00BFF5E74005002081
:1009E0000080034070B57D480068401C7B4908606A
:1009F0007B480068401C7A4908607A4800680128F2
:100A000000D170BD784C2368002B01DB1C4600E050
:100A10005C42764D2D78AC4222DA734C6268002A33
:100A200001DB144600E05442704D2D78AC4217DAD9
:100A30006D4C2168002901DB0C4600E04C42002C83
:100A400008DC694C6068002801DB044600E0444291
:100A5000002C05DD66480068401C6549086006E01A
:100A60006349086800EBD0714910614A1160604821
:100A7000006860490978884203DB01205949086011
:100A8000BFE757480068B0F5C86F02DB0120554941
:100A900008605248006807287BDB00204F49086047
:100AA00051480069012876D0012053490870002080
:100AB000524908709FED520A524880ED010A4A4897
:100AC00090ED000AB8EEC00AF3EE040AB4EEE00AB4
:100AD000F1EE10FA0BDD90ED000AB8EEC00ADFED82
:100AE0004A0A20EE200A474880ED020A0BE03E4801
:100AF00090ED000AB8EEC00ADFED440A20EE200AAD
:100B0000404880ED020A01213E480EF06DFC9FED49
:100B10003C0A3C48A83080ED010A334890ED010AB8
:100B2000B8EEC00AF3EE040AB4EEE00AF1EE10FAF1
:100B30000CDD90ED010AB8EEC00ADFED330A20EEBD
:100B4000200A3048A83080ED020A0CE0264890EDDB
:100B5000010AB8EEC00ADFED2E0A20EE200A29486D
:100B6000A83080ED020A01212648A8300EF03CFC96
:100B7000244890ED0C0AB1EE400A264880ED000AA8
:100B80002048A83090ED0C0AB1EE400A214880EDD3
:100B9000010A03E0FFE701201849087017480078B0
:100BA000012812D114480078012806D102201249E8
:100BB000087001200DF08CFB0EE00F480078022831
:100BC0000AD100200DF084FB06E01248D0ED010AA6
:100BD00090ED000A0DF064FE00BF12E7280F002020
:100BE0002C0F0020340F00207C640020380F0020E0
:100BF000300F0020390F0020740F0020750F0020E7
:100C000000000000882D00200AD7A3BE5C8FC2BE62
:100C1000CDCCCCBE8C0A002010B556480068401CD4
:100C20005449086008460068082870DB0020086006
:100C30009FED510A514880ED010A514890ED000A9C
:100C4000B8EEC00AF3EE090AB4EEE00AF1EE10FACB
:100C50000BDD90ED000AB8EEC00ADFED4A0A20EE87
:100C6000200A464880ED020A0BE0454890ED000A54
:100C7000B8EEC00ADFED440A20EE200A3F4880EDBE
:100C8000020A01213D480EF0AFFB9FED3B0A3B48B5
:100C9000A83080ED010A3A4890ED010AB8EEC00A8A
:100CA000F3EE040AB4EEE00AF1EE10FA0CDD90ED7A
:100CB000010AB8EEC00ADFED350A20EE200A2F48FF
:100CC000A83080ED020A0CE02D4890ED010AB8EE44
:100CD000C00ADFED2C0A20EE200A2848A83080ED5B
:100CE000020A01212548A8300EF07EFB234890ED32
:100CF0000C0AB1EE400A264880ED000A1F48A830D1
:100D000090ED0C0AB1EE400A214880ED010A1C4822
:100D1000006840B91A48406828B901201D49087088
:100D20001D49087007E000201A4908701A49087028
:100D300001201A49087017480078012812D1174875
:100D40000078012806D102201449087001200DF016
:100D5000BFFA0EE01148007802280AD100200DF0F9
:100D6000B7FA06E00A48D0ED010A90ED000A0DF04E
:100D700097FD10BD500F002000000000882D0020BE
:100D80007C6400209A9999BE6666E6BECDCC4CBEC6
:100D90008C0A00208A0F0020540F0020890F0020A9
:100DA00030B587B0002400200490059006907F485D
:100DB0000078052873DC002039E07D4991ED000AB8
:100DC000F3EE040AB4EEE00AF1EE10FA2AD87949FB
:100DD00091F86410012925D100241BE075493431B4
:100DE00001EB840191ED000ADFED730A60EE200A49
:100DF0009FED721A80EE810A04A901EB8401D1ED06
:100E0000000A30EE200A04A901EB840181ED000AFA
:100E1000611C8CB2032CE1DB411C88B20021654AC5
:100E200082F864100121664A604B1B78D154B0F5FA
:100E30007A7FC2DBDDED040A00EE100AB8EE400A4C
:100E400080EE801A5949097801EB41015D4A02EBB5
:100E5000810181ED001ADDED050A00EE100AB8EE01
:100E6000400A80EE801A5149097801EB410102EBFA
:100E7000810181ED011ADDED060A00EE100AB8EEDF
:100E8000400A80EE801A4949097801EB410102EBE2
:100E9000810181ED021A0621444A117000BF4848C1
:100EA00000784749497808404549897808404449CD
:100EB000C9780840424909790840414949790840C0
:100EC000002870D04048007800286CD101203E49AD
:100ED000087000203D4908703D4A3E49394801F0FC
:100EE000D1FB3D490870002504E0002034494855F5
:100EF000681C85B2062DF8DB37480078012839D107
:100F00003448D0ED021AB0EE611AD0ED011AF0EEBD
:100F1000610AD0ED001AB0EE610A304902201AF0E1
:100F200038FE2B48D0ED021AB0EE611AD0ED011A4E
:100F3000F0EE610AD0ED001AB0EE610A27490520F3
:100F40001AF027FE0EF0D6FF002025490880022166
:100F5000244A0346B6EE000ACDE9002102904FF480
:100F6000FA6241F28831204801F093F801201F49CC
:100F7000487214E000201A4908800221194A0346E9
:100F80009FED1B0ACDE9002102904FF4FA6241F275
:100F90008831154801F07DF80020164908800120AD
:100FA00007B030BDFFE70020FAE70000E1000020B5
:100FB000E00D0020384300200AE81C4100000046F4
:100FC000E3000020A8120020E9000020E200002039
:100FD000D400002078120020E00000203C460020D1
:100FE0006A01002000500240281400208E4D00208D
:100FF000CDCCCC3D560200203EB50024FE480088F2
:1010000000EE100AB8EE400ADFEDFC0AB4EEE00A8A
:10101000F1EE10FA22D8FA4890ED000ADFEDF90A55
:10102000B4EEE00AF1EE10FA18DBF74890ED000A92
:10103000DFEDF60AB4EEE00AF1EE10FA0ED8F4484D
:1010400090ED000ADFEDF30AB4EEE00AF1EE10FADB
:1010500004DBF1480088401CEF490880E64800881E
:1010600000EE100AB8EE400ADFEDE40AB4EEE00A42
:10107000F1EE10FA22D8E24890ED000ADFEDE10A25
:10108000B4EEE00AF1EE10FA18DBDF4890ED000A4A
:10109000DFEDDE0AB4EEE00AF1EE10FA0ED8DC481D
:1010A00090ED000ADFEDDB0AB4EEE00AF1EE10FA93
:1010B00004DBD9480088B0F5167F03DAD7480078FA
:1010C000022852D1D648008800284ED10120D549A7
:1010D0000880D54908700020D449087001200221F9
:1010E000D34A00239FEDD30ACDE9002102904FF4AB
:1010F0007A725100D04800F0CCFF0620CF4908702A
:101100000020CF490870C449088000241DE0002059
:10111000CC4908559FEDCC0A04EB4400CB4901EBC8
:10112000800080ED000A9FEDC80A04EB440001EB4B
:10113000800080ED010A9FEDC40A04EB440001EB3E
:10114000800080ED020A601C84B2062CDFDB0A20DE
:10115000BF490880012014F0A3F8012014F0C8F85A
:101160000020BC490880AD490870AF4800780128CC
:101170007ED1A148008800EE100AB8EE400ADFEDEB
:101180009F0AB4EEE00AF1EE10FA19D89C4890EDEF
:10119000000ADFEDB10AB4EEE00AF1EE10FA0FD862
:1011A000994890ED000AB5EEC00AF1EE10FA07D1A9
:1011B000974890ED000AB5EEC00AF1EE10FA03D0A0
:1011C000A6480078012817D1A5480088401CA449EA
:1011D000088008460088142803DAA048007801280F
:1011E00006D10020954908709E4908809E490880D4
:1011F00000209A49087097E17F48008800EE100AA5
:10120000B8EE400ADFED7D0AB4EEE00AF1EE10FA26
:1012100019D87B4890ED000AB5EEC00AF1EE10FA3D
:1012200011D1794890ED000ADFED7A0AB4EEE00AB8
:10123000F1EE10FA07DB764890ED000AB5EEC00A31
:10124000F1EE10FA03D08548007802281AD18448BC
:101250000088401C8249088008460088142803DA68
:101260007E480078022809D101207449087000E006
:1012700061E100207B4908807B4908800020774994
:10128000087051E15C48008800EE100AB8EE400A90
:10129000DFED5A0AB4EEE00AF1EE10FA19D8584818
:1012A00090ED000AB5EEC00AF1EE10FA11D15648E1
:1012B00090ED000ADFED550AB4EEE00AF1EE10FA07
:1012C00007D8534890ED000AB5EEC00AF1EE10FAC7
:1012D00003D062480078032818D161480088401C78
:1012E0005F49088008460088142803DA5B480078C4
:1012F000032807D10220514908700020594908806D
:10130000594908800020554908700DE13A48008885
:1013100000EE100AB8EE400ADFED380AB4EEE00A3B
:10132000F1EE10FA19D8364890ED000AB5EEC00A71
:10133000F1EE10FA11D1344890ED000AB5EEC00A72
:10134000F1EE10FA09D1324890ED000ADFED310AD2
:10135000B4EEE00AF1EE10FA03DA4048007804280F
:1013600018D13F480088401C3D4908800846008845
:10137000142803DA39480078042807D103202F49BC
:101380000870002037490880374908800020334919
:101390000870C9E01848008800EE100AB8EE400A4C
:1013A000DFED160AB4EEE00AF1EE10FA19D814488F
:1013B00090ED000AB5EEC00AF1EE10FA11D1124814
:1013C00090ED000AB5EEC00AF1EE10FA09D110480E
:1013D00090ED000ADFED0D0AB4EEE00AF1EE10FA2E
:1013E00003D91E480078052853D11D480088401CA9
:1013F0001B490880084639E0FA0200200040834477
:101400000403002000001643000300200000D2C1A6
:10141000FC0200200000D241EA000020E109002087
:10142000180300206A010020E2000020E0000020F4
:1014300000500240CDCC4C3E28140020E10000209A
:10144000E9000020E300002000000000A8120020B6
:101450005602002026030020000016C3E2090020E7
:10146000EC00002020030020220300200088142824
:1014700003DA31480078052807D104202F49087085
:1014800000202F4908802F49088000202A49087031
:101490004AE02D48008800EE100AB8EE400A5FEDE1
:1014A000290AB4EEE00AF1EE10FA19D8274890EDB7
:1014B000000A5FED2C0AB4EEE00AF1EE10FA0FDD3F
:1014C000234890ED000AB5EEC00AF1EE10FA07D1FC
:1014D000204890ED000AB5EEC00AF1EE10FA03D0F4
:1014E00015480078062818D11B480088401C1A4966
:1014F000088008460088142803DA0F480078062878
:1015000007D105200D49087000200D4908800D49BC
:10151000088000200849087006E00F49088800EBA1
:10152000D07149100C4A11800B480088C82802DB92
:101530000020094908803EBDE2090020E1000020AA
:101540002003002022030020FA02002004030020D0
:1015500000030020FC020020EC00002000202E49A7
:10156000097901292BD12D4991ED000A2C4981EDF2
:10157000000A31200AE0294991ED000A2849243166
:1015800001EB800181ED000A411E88B20028F2DCE7
:10159000224991ED000A224981ED090A1F4991ED86
:1015A000000A204981EDFD0A1C4991ED000A1E49FF
:1015B00081ED000A9FED1D0A81ED030A2AE01C4916
:1015C00091ED140A164981ED000A31200AE018490C
:1015D00091ED140A1249243101EB800181ED000ADA
:1015E000411E88B20028F2DC114991ED140A0C4921
:1015F00081ED090A094991ED000A0A4981EDFD0AC8
:101600000B4991ED140A084981ED000A9FED070A84
:1016100081ED030A70470000F00D0020C80400208F
:101620004832002060220020A43900200000000081
:101630003843002010B52DED048B0446F0EE408AAF
:10164000B0EE609AB0EE418A374880ED019AC0ED65
:10165000558A364890ED000A3548D0ED000A30EE44
:10166000600A314880ED560A324890ED000A32484F
:10167000D0ED000A30EE600A2B4880ED020A00F53A
:10168000A8700DF06FFB28480DF06CFB264890ED1C
:101690000C0A80ED2B0A90ED600A80ED7F0A5CB3A6
:1016A000012C3CD1B5EEC08AF1EE10FA1CD190EDC0
:1016B000A90AB5EEC00AF1EE10FA05D11F4890ED67
:1016C000000A194880EDA90A1C4890ED000A164846
:1016D00080EDAA0A00F528700DF0B2FF124890EDD7
:1016E000B40A80EDD30A06E09FED150A0E4880ED9E
:1016F000A90A80EDD38A12E00B4880EDA98A0F4831
:1017000090ED000A084880EDAA0A00F528700DF057
:1017100097FF054890EDB40A80EDD30A00BF00BFE3
:10172000BDEC048B10BD000060220020BC0D002029
:1017300034010020B80D002030010020C00D002031
:101740000000000010B50948D0ED061AB0EE611A8D
:10175000D0ED051AF0EE610AD0ED041AB0EE610A80
:101760000120FFF767FF05F089FD10BDA45500209B
:1017700010B504461E2C76D2DFE804F07555657668
:1017800080909AFDFCFBFAF90F41F8F7F675F5F435
:10179000F3F275757575757575F102F091FEFE4879
:1017A0000088022819D11420FC49087013F002FFA8
:1017B000FB480078012805D11E20FA49087013F073
:1017C0000DFF1BE0DFEDF80A9FEDF70A002004F0A3
:1017D00047F900200CF07CFD10E0F4480078012867
:1017E00002D10AF09FFF09E0DFEDEF0A9FEDEE0A5C
:1017F000002004F035F900200CF06AFDB9E313F085
:10180000D9FEE7480078012802D113F0E7FE09E08D
:10181000DFEDE50A9FEDE40A002004F021F9002045
:101820000CF056FDA5E301F0EDFAE14890ED260A33
:10183000E04880ED060ADFEDDC0A9FEDDB0A0020C0
:1018400004F00EF995E316F079FAD94890ED260ADE
:10185000D84880ED060ADFEDD40A9FEDD30A0020B8
:1018600004F0FEF885E36AE314F01AFCDFEDCE0A1B
:101870009FEDCD0A002004F0F3F87AE304F056FB64
:10188000CB4890ED260ACB4880ED060ADFEDC60A6C
:101890009FEDC50A002004F0E3F86AE304F0D2FBF0
:1018A000DFEDC10A9FEDC00A002004F0D9F860E323
:1018B000C148007830B901200CF00AFD0120BE4972
:1018C000087002E000200CF003FDB94890ED260AF4
:1018D000B84880ED060AB94890ED000ADFEDB80A75
:1018E00030EEC00AB5EEC00AF1EE10FA06DD90ED5A
:1018F000000ADFEDB30A30EEC00A08E0AF4890ED11
:10190000000ADFEDAF0A30EEC00AB1EE400AF1EE98
:10191000040AB4EEE00AF1EE10FA38D80020A94922
:1019200008709FEDA90AA94880ED000A9FED9E0A64
:10193000A74880ED000A0020A6490860A649086073
:10194000A6490860A6490860A6490860A64908603B
:1019500013F030FE92480078012810D10CE05FE1CE
:101960008DE224E2C3E1E9E096E17BE175E1C1E0CB
:101970009FE070E041E012E013F030FE0EE0DFED9A
:101980008A0A9FED890A002004F06AF806E0DFED7C
:10199000860A9FED8B0A012004F062F8E9E27E4896
:1019A0000088072826D114207C49087013F002FE15
:1019B0007B480078012802D113F010FE1CE00020C3
:1019C0008A4908608A4908608A4908608A4908602B
:1019D00079490870894908701E2072490870DFED46
:1019E000720A9FED710A002004F03AF800200CF012
:1019F0006FFC01E00AF096FEBBE2674800880C2805
:101A000026D114206549087013F0D4FD644800788D
:101A1000012802D113F0E2FD1CE0002073490860A8
:101A20007349086073490860734908606249087027
:101A3000724908701E205B490870DFED5B0A9FED5C
:101A40005A0A002004F00CF800200CF041FC01E0E0
:101A50000AF068FE8DE2504800880D2826D1142037
:101A60004E49087013F0A6FD4D480078012802D1B8
:101A700013F0B4FD1CE000205C4908605C4908607C
:101A80005C4908605C4908604B4908705B49087014
:101A90001E2044490870DFED440A9FED430A0020F0
:101AA00003F0DEFF00200CF013FC01E00AF03AFE28
:101AB0005FE239480088122819D11420374908708C
:101AC0001E203849087013F075FD3548007801284C
:101AD00002D113F083FD0CE0DFED330A9FED320AF3
:101AE000002003F0BDFF00200CF0F2FB01E00AF043
:101AF00019FE3EE2FEF776FF3F480068012815D147
:101B000013F058FD26480078012802D113F066FD35
:101B10000CE03A48007830B901200CF0D9FB0120E4
:101B20003649087002E000200CF0D2FBDFED1E0AFF
:101B30009FED1D0A002003F093FF1AE22148007870
:101B400030B901200CF0C4FB01202D49087002E0DF
:101B500000200CF0BDFB2348006840B91C48D0EDC4
:101B6000000A1A4890ED000A1DF058FC57E00020CA
:101B70001E4908601E4908601E4908601E49086029
:101B80000D4908701D49087013F014FD04480078D1
:101B900001283AD136E00000180D0020380F00204F
:101BA000E00E0020390F002000000000DC0E0020B5
:101BB00044310020A4550020F50E002048320020BA
:101BC0000000B442F60E0020000048C3E40E0020DE
:101BD000E80E0020EC0E0020580F00205C0F0020C3
:101BE000600F0020640F0020680F0020280F0020E5
:101BF0002C0F0020300F0020340F0020F10E0020A9
:101C0000F00E002013F0EAFC09E05FED190A1FED69
:101C10001A0A002003F024FF00200CF059FB00BF3B
:101C2000D548807901280FD1D348C07901280BD13C
:101C3000D148007A012807D113F0BCFCCF480078C6
:101C4000012801D113F0CAFC0221CB489FEDCC1A28
:101C50009FEDCC0B1DF09AFA00BFFEF7DDFF1CF0E4
:101C600059FD00BFC94890ED240AC94880ED040A17
:101C7000C64890ED250AC64880ED050AC34890ED98
:101C8000260AC34880ED060A5FED390A1FED3A0ABD
:101C9000002003F0E5FE6CE100200CF025FABD48C1
:101CA0000078012801D1BC490860B84890ED260AA7
:101CB000B74880ED060AB848006838B9DFEDB70AC2
:101CC0001FED470A022003F0CBFE0FE013F072FC79
:101CD000AA480078012802D113F080FC06E05FEDED
:101CE0004E0A1FED4F0A002003F0BAFE41E1AC4856
:101CF000007830B901200CF0EBFA0120A8490870F7
:101D000002E000200CF0E4FAA04890ED260AA0487A
:101D100080ED060AA34890ED000ADFEDA30A30EE3D
:101D2000C00AB5EEC00AF1EE10FA06DD90ED000A29
:101D3000DFED9D0A30EEC00A08E09A4890ED000AF7
:101D4000DFED990A30EEC00AB1EE400AF1EE040A66
:101D5000B4EEE00AF1EE10FA21D8002093490860B1
:101D60009349086093490860934908609349087053
:101D70000720934908705A209249087013F01AFC02
:101D80007E480078012802D113F028FC0EE05FEDB8
:101D90007A0A1FED7B0A002003F062FE06E05FED89
:101DA0007E0A9FED810A012003F05AFE00BF86489B
:101DB000007830B901200CF08BFA012082490870BC
:101DC00002E000200CF084FA704890ED260A70487A
:101DD00080ED060A734890ED000A5FED870A30EE49
:101DE000C00AB5EEC00AF1EE10FA06DD90ED000A69
:101DF0005FED8D0A30EEC00A08E06A4890ED000AF7
:101E00005FED910A30EEC00AB1EE400AF1EE040A2D
:101E1000B4EEE00AF1EE10FA29D89FED6C0A6C4896
:101E200080ED000A9FED690A6A4880ED000A0020F3
:101E3000594908606849086068490860684908604D
:101E400068490860684908706849086013F0B2FB87
:101E50004A480078012802D113F0C0FB0EE05FED84
:101E6000AE0A1FEDAF0A002003F0FAFD06E05FEDB9
:101E7000B20A1FEDAD0A012003F0F2FD79E04848F7
:101E8000007830B901200CF023FA01204449087091
:101E900002E000200CF01CFA3C4890ED260A3C4879
:101EA00080ED060A3F4890ED000ADFED510A30EE62
:101EB000C00AB5EEC00AF1EE10FA06DD90ED000A98
:101EC000DFED4B0A30EEC00A08E0364890ED000A1C
:101ED000DFED470A30EEC00AB1EE400AF1EE040A27
:101EE000B4EEE00AF1EE10FA21D800202F49086084
:101EF0002F4908602F4908602F4908602F49087052
:101F000007202F4908705A202E49087013F052FB01
:101F10001A480078012802D113F060FB0EE05FED53
:101F2000DE0A1FEDDF0A002003F09AFD06E05FEDF8
:101F3000E20A9FED2F0A012003F092FD19E01348F9
:101F400090ED240A124880ED040A104890ED250A0D
:101F50000F4880ED050A0D4890ED260A0C4880EDEB
:101F6000060A5FEDEF0A1FEDF00A002003F078FD8E
:101F700000BF00BF10BD0000085E0020E00E002082
:101F800000008C4200000000000049404431002065
:101F9000A4550020AB0B0020EC0E0020000020C256
:101FA000F00E00204832002000009642280F00204A
:101FB0002C0F0020300F0020340F0020F10E0020E5
:101FC000380F0020390F0020F50E00200000F0C26D
:101FD000E40E0020E80E0020580F00205C0F0020C7
:101FE000600F0020640F0020F60E0020680F002014
:101FF0000000824210B5054814F0A0FE0E210448EE
:1020000004F07EFA11F098FC10BD0000050800F005
:102010000050024010B504462088012803DB2088C8
:10202000401E208004E0217C0022E06804F0B3FA26
:10203000208810B9A07C01282AD12089401C208149
:10204000208900EB80006188884201DB002020812C
:10205000608800EE100AB8EE400AD4ED010A60EE86
:10206000200A208900EB800000EE100AB8EEC00ABA
:10207000F4EEC00AF1EE10FA05DB227CD1B2E06882
:1020800004F089FA04E0217C0022E06804F083FA7D
:1020900010BDF0B505AC70CC00EE901AF8EE600AF9
:1020A000B1EE041AC0EE811AFCEEE10A10EE907A4D
:1020B0000780428080ED010A0381C4600582867436
:1020C000F0BD000010B504464CB95848FFF7A2FF18
:1020D0005748FFF79FFF5748FFF79CFFA4E0012CEC
:1020E0005CD15548007848B95148FFF793FF4F48F5
:1020F00004F056FA4F4804F053FA95E04E48007841
:10210000012809D14A48FFF785FF484804F048FAFA
:10211000484804F045FA87E047480078022809D18A
:102120004348FFF777FF414804F03AFA414804F08A
:1021300037FA79E040480078032809D13C48FFF796
:1021400069FF3A4804F02CFA3A4804F029FA6BE0A7
:1021500039480078042809D13548FFF75BFF334838
:1021600004F01EFA334804F01BFA5DE032480078B0
:10217000052809D12E48FFF74DFF2C4804F010FA2E
:102180002C4804F00DFA4FE02848FFF743FF284899
:10219000FFF740FF2748FFF73DFF45E0022C32D113
:1021A0002648007848B92248FFF734FF1F4804F05A
:1021B000F7F9204804F0F4F936E0204800780128C7
:1021C00009D11B48FFF726FF184804F0E9F9194820
:1021D00004F0E6F928E019480078022809D11448EB
:1021E000FFF718FF114804F0DBF9124804F0D8F9A2
:1021F0001AE00E48FFF70EFF0D48FFF70BFF0D48E2
:10220000FFF708FF10E0032C0ED1002202210C483A
:1022100004F0C1F900220421094804F0BCF90022AD
:102220000821074804F0B7F910BD00002814002069
:102230003C14002050140020E10000200001002088
:102240000050024010B5214800682149086021482B
:1022500090ED000ABDEEC00A084680ED010A1E4856
:1022600090ED0C0ABDEEC00A084680ED020A1B483C
:1022700090EDFD0ABDEEC00A084680ED030A18483D
:1022800090F900000861174800884861164890EDF1
:10229000000ABDEEC00A084680ED060A134890ED1C
:1022A000000ABDEEC00A084680ED070A1048007813
:1022B0000862084890ED000ABDEEC00A084680EDAD
:1022C000090A0A2102F0A2F810BD00007C64002077
:1022D000E4540020483200205026002060220020D4
:1022E000D20E0020180D0020C8040020140B00207E
:1022F0001C0B002010B52A48DFED2A0A9FED2A0AA0
:1023000014F090FA2948DFED2A0A9FED270A14F00D
:1023100089FA2848DFED280A9FED230A14F082FA93
:102320002648F3EE0E0A9FED200A14F07BFA2448AB
:10233000F3EE040A9FED1C0A14F074FA2148F2EE41
:102340000E0A9FED190A14F06DFA1F48F2EE040A06
:102350009FED150A14F066FA1C48F1EE040A9FED91
:10236000120A14F05FFA1A48F0EE000A9FED0E0A06
:1023700014F058FA1748F2EE040A9FED170A14F009
:1023800051FA1648F0EE000AB3EE040A14F04AFAC5
:102390001348F7EE080AB3EE040A14F043FA10BD2E
:1023A000781400200000A042000048439014002050
:1023B00000007042A814002000004C42C01400200D
:1023C000D8140020F014002008150020201500204B
:1023D00038150020501500200000484268150020E4
:1023E0008015002070B503460C46154600204DE0D0
:1023F000461C31B246E000EB400604EBC60606EB95
:102400008106D6ED000A00EB400604EBC60606EB9B
:10241000800696ED001A80EE810AB5EEC00AF1EE54
:1024200010FA2DD003EB8106D6ED000A03EB8006EF
:1024300096ED001A40EE410A03EB8106C6ED000A54
:102440000A461BE002EB420604EBC60606EB8106D9
:10245000D6ED000A02EB420604EBC60606EB800648
:1024600096ED001A40EE410A02EB420604EBC60666
:1024700006EB8106C6ED000A561C32B2062AE1DBE5
:102480004E1C31B20629B6DB461C30B20628AFDB43
:10249000052045E000EB400604EBC60606EB80068F
:1024A000D6ED000A03EB800696ED001AC1EE201A65
:1024B00003EB8006C6ED001AF7EE000A00EB4006BB
:1024C00004EBC60606EB8006C6ED000A002123E0F9
:1024D00000EB400604EBC60606EB8106D6ED000ACB
:1024E000B0EE600A03EB8106D6ED000A03EB80062E
:1024F00096ED001A40EE410A03EB8106C6ED000A94
:10250000DFED100A00EB400604EBC60606EB810681
:10251000C6ED000A4E1C31B28142D9DB461E30B2F4
:102520000028B7DA002009E003EB8006D6ED000AA8
:1025300005EB8006C6ED000A461C30B20628F3DB28
:1025400070BD00000000000010B502460B460020E0
:1025500017E09FED0D0A02EB800484ED000A0021D4
:102560000BE09FED090A00EB400403EBC40404EB0D
:10257000810484ED000A4C1C21B20629F1DB441CC5
:1025800020B20628E5DB10BD00000000F0B586B0E3
:1025900004460D46F7EE001AB0EE611A002035E051
:1025A000C61C02EB8606D6ED000A03EB8006D6EDCC
:1025B000001A02EB800696ED002A31EEC20A60EEA8
:1025C000A01A21EE802AF0EE411A42EE401AB0EE37
:1025D000611AF0EE001A60EEA11A61EEA01A61EE27
:1025E000801A6E4606EB8006C6ED001AF8EE001A59
:1025F00060EEA11A61EE801A61EE801AC61C6F4669
:1026000007EB8606C6ED001A461C30B20328C7DB6E
:10261000002032E004EB8006D6ED001A6E4606EB91
:10262000800696ED002A42EE011A04EB8006C6ED04
:10263000001A00211DE000EB400605EBC60606EB84
:102640008106D6ED001A6E4606EB800696ED002A4E
:102650006E4606EB8106D6ED002A42EE221A00EB0A
:10266000400605EBC60606EB8106C6ED001A4E1CB9
:1026700031B20629DFDB461C30B20628CADB06B0C1
:10268000F0BD00002DE9F0432DED028BB9B00746F7
:102690000E4614464FF000089FED9F0AB0EE408AA8
:1026A0009FED9E0AF0EE408A0020369037903890D9
:1026B000182130A8FDF71FFF18212AA8FDF71BFFDE
:1026C000182124A8FDF717FF90216846FDF713FF96
:1026D0004FF001099FED920A8DED320A8DED310A1E
:1026E0008DED300A9FED8F0A8DED350A8DED340AA0
:1026F0008DED330A7FE008F101000FFA80F869469A
:1027000024A8FFF721FF00251FE005EB450007EB9C
:10271000800090ED000A8DED360A05EB450007EBD1
:10272000800090ED010A8DED370A05EB450007EBBF
:10273000800090ED020A8DED380A36AB30AA69466A
:1027400024A8FFF723FF681C05B2062DDDDB2AAAAB
:10275000694624A8FFF746FE9DED2D0A20EE000AEB
:10276000DDED330A20EEA01AC0EE010A9DED2A0A23
:1027700020EE000A30EE000A9DED2B1ADDED2B1A3B
:1027800001EE210A9DED2C1ADDED2C1A01EE210A35
:1027900030EE800ADDED2E0A60EEA00A9DED341ABF
:1027A00021EE011AC0EE811A70EE210A9DED2F0A6A
:1027B00020EE000A9DED351A21EE011AC0EE011A35
:1027C00030EEA10AF0EE408A002512E030A800EBBE
:1027D000850090ED000A2AA800EB8500D0ED000AE4
:1027E00030EE600A30A800EB850080ED000A681C1E
:1027F00005B2062DEADBB8F1140F05DAF4EEC88A4B
:10280000F1EE10FA3FF777AF9DED330ADFED460AA0
:1028100020EE200A84ED000A9DED340ADFED420A25
:1028200020EE200A84ED010A9DED350ADFED3E0A17
:1028300020EE200A84ED020A9DED300AD4ED000A54
:1028400020EE200A86ED000A9DED310AD4ED010A42
:1028500020EE200A86ED010A9DED320AD4ED020A2F
:1028600020EE200A86ED020A94ED000AF7EE000A37
:1028700030EE600AB0EEC00ADFED2C0AB4EEE00ADA
:10288000F1EE10FA1DDC94ED010AF7EE000A30EECD
:10289000600AB0EEC00ADFED250AB4EEE00AF1EE00
:1028A00010FA0EDC94ED020AF7EE000A30EE600A30
:1028B000B0EEC00ADFED1D0AB4EEE00AF1EE10FA48
:1028C00001DD4FF0000996ED000AB0EEC00AF1EE0E
:1028D000040AB4EEE00AF1EE10FA15DC96ED010AF6
:1028E000B0EEC00AF1EE040AB4EEE00AF1EE10FA1E
:1028F0000ADC96ED020AB0EEC00AF1EE040AB4EE6C
:10290000E00AF1EE10FA01DD4FF00009484639B057
:10291000BDEC028BBDE8F0835F7089300000C842D7
:10292000000000007FD6D03D0AE81C41CDCC4C3ED3
:1029300010B50A480078401C08490870084600781D
:10294000042804DB01F0E8FB00200449087015F0BE
:1029500075FA01F08FF814F061FE10BD740C0020C0
:102960002DE9FF470546002403A9284617F058F92A
:10297000044695F87C9340F27F30465D34B902AB53
:1029800001AA6946284616F0D0FF04461CB928461D
:1029900018F0CBFD04462CB94FF4FA71284616F016
:1029A000C0FA044644B9D5F8148043463246494635
:1029B000284613F053FE044644B928469DE80E000D
:1029C00018F066FD04460CB90298286124B903A9E1
:1029D000284618F085FD044634B9AF7806223946FA
:1029E000284617F04EFE044614B940F27E30465594
:1029F000204604B0BDE8F087002009490978012984
:102A000001D140F0010007490978012901D140F0C6
:102A1000020005490978012901D140F004007047FE
:102A200058020020E2000020F800002010B52DED33
:102A3000028B86B0142101A8FDF75DFD9FED780A99
:102A4000B0EE408A0020774908707749087000246A
:102A500001201FE000EB4001744A02EB0111C9891B
:102A6000B1B170490978491C6E4A117000EB400100
:102A70006E4A02EB011191ED060A2146621CD4B2A6
:102A800001AA02EB810181ED000A0121664A117061
:102A9000411CC8B20528DDDB654890ED040AB5EE9F
:102AA000C00AF1EE10FA1BDD90ED040ADFED610AB9
:102AB000B4EEE00AF1EE10FA12D25A480078401C47
:102AC000584908705A4890ED040A2046611CCCB25F
:102AD00001A901EB800080ED000A01205249087035
:102AE0005048007828B99FED530A534880ED000AFA
:102AF00092E04C480078012805D19DED010A4E482E
:102B000080ED000A88E04748007802280DD19DED4D
:102B1000021AF0EE410A9DED011AB0EE410A1AF0D8
:102B200007F8454880ED000A76E03E480078032823
:102B300019D19DED021AF0EE410A9DED011AB0EE99
:102B4000410A19F0F5FFB0EE408A9DED030AF0EE60
:102B5000400AB0EE480A19F0EBFFB0EE408A364862
:102B600080ED008A58E02F480078042823D19DED9D
:102B7000021AF0EE410A9DED011AB0EE410A19F079
:102B8000D7FFB0EE408A9DED030AF0EE400AB0EEAA
:102B9000480A19F0CDFFB0EE408A9DED040AF0EE30
:102BA000400AB0EE480A19F0C3FFB0EE408A22484E
:102BB00080ED008A30E01B48007805282CD19DED7F
:102BC000021AF0EE410A9DED011AB0EE410A19F029
:102BD000AFFFB0EE408A9DED030AF0EE400AB0EE82
:102BE000480A19F0A5FFB0EE408A9DED040AF0EE08
:102BF000400AB0EE480A19F09BFFB0EE408A9DED06
:102C0000050AF0EE400AB0EE480A19F091FFB0EE66
:102C1000408A094880ED008A06B0BDEC028B10BDE9
:102C200000000000240B0020250B0020845200200F
:102C3000B854002000004843200B002010B5014686
:102C4000002001EBC1026E4B13F8222001EBC103FF
:102C50006B4C04EB83035B781A4001EBC10304EB7C
:102C600083039B781A4001EBC10304EB8303DB78F9
:102C70001A4001EBC10304EB83031B791A4001EBFB
:102C8000C10304EB83035B791A4001EBC10304EB3E
:102C900083039B791A4001EBC10304EB8303DB79C7
:102CA0001A4001EBC10304EB83031B7A1A4001EBCA
:102CB000C10304EB83035B7A1A4001EBC10304EB0D
:102CC00083039B7A1A4001EBC10304EB8303DB7A95
:102CD0001A4001EBC10304EB83031B7B1A4001EB99
:102CE000C10304EB83035B7B1A4001EBC10304EBDC
:102CF00083039B7B1A4001EBC10304EB8303DB7B63
:102D00001A4001EBC10304EB83031B7C1A4001EB67
:102D1000C10304EB83035B7C1A4001EBC10304EBAA
:102D200083039B7C1A4001EBC10304EB8303DB7C30
:102D30001A4001EBC10304EB83031B7D1A4001EB36
:102D4000C10304EB83035B7D1A4001EBC10304EB79
:102D500083039B7D1A4001EBC10304EB8303DB7DFE
:102D60001A4001EBC10304EB83031B7E1A4001EB05
:102D7000C10304EB83035B7E1A4001EBC10304EB48
:102D800083039B7E1A4001EBC10304EB8303DB7ECC
:102D90001A4001EBC10304EB83031B7F1A4001EBD4
:102DA000C10304EB83035B7F1A4001EBC10304EB17
:102DB00083039B7F1A4001EBC10304EB8303DB7F9A
:102DC0001A4001EBC10304EB830393F820301A404F
:102DD00001EBC10304EB830393F821301A4001EBAC
:102DE000C10304EB830393F822301A4001EBC103C3
:102DF00004EB830393F823301A4002B1012010BD85
:102E00006813002010B538480088401C36490880F7
:102E100008460088142848DB00200880334890F8D2
:102E20003D0001283ED13249087000203149087028
:102E30002E4981F83D009FED300A304880ED010AAF
:102E4000084690ED100A2D4880ED020A084690F8D9
:102E50003A102A480CF0C8FA9FED270A2748A830F4
:102E600080ED010A214890ED110A2448A83080ED38
:102E7000020A1E4890F83A102048A8300CF0B4FA24
:102E80001E4890ED0C0AB1EE400A1D4880ED000A84
:102E90001A48A83090ED0C0AB1EE400A184880EDAF
:102EA000010A02E001201349087012480078012845
:102EB00012D10F480078012806D102200C49087071
:102EC00001200BF005FA0EE00948007802280AD12B
:102ED00000200BF0FDF906E00948D0ED010A90ED65
:102EE000000A0BF0DDFC10BDCA0A0020A05E002025
:102EF000C90A0020CC0A002000000000882D002014
:102F00008C0A002023480088401C2249088008467B
:102F1000008828283DDB002008801F4890ED090A22
:102F2000D0ED060AB4EE600AF1EE10FA1ED190ED73
:102F30000A0AD0ED070AB4EE600AF1EE10FA15D1D4
:102F400090ED0B0AD0ED080AB4EE600AF1EE10FA2B
:102F50000CD112480088401C10490880084600889F
:102F60000A2810DD00200E4988700CE00B49088803
:102F700000EBD0714910094A11801046008810B941
:102F80000120074988700448034618330ECB2430CB
:102F90000EC070479C0E002038430020980E002081
:102FA000F00D002010B504F0B9FB0A2001F082FA00
:102FB0000A211E2013F004FD12490870084600780B
:102FC000482811D103200870782200211E2013F018
:102FD00009FD202201211E2013F004FD0022022100
:102FE0001E2013F0FFFC04E00DF096FA01200549C5
:102FF00008700548F3EE020A9FED040A13F012FC74
:1030000010BD00008E0E00203C2100200000204258
:1030100010B52DED048B82B0044688480088401C12
:10302000864908800846008801287CD00846008828
:1030300000EE100AB8EE400AF1EE000AB4EEE00A23
:10304000F1EE10FA6FDB7E4814F0D6FB7D48007875
:10305000012857D100210D2013F0B2FC8DF800009B
:1030600001210D2013F0ACFC8DF8010002210D2090
:1030700013F0A6FC8DF8020003210D2013F0A0FC34
:103080008DF8030004210D2013F09AFC8DF8040044
:1030900005210D2013F094FC8DF805009DF800002B
:1030A0009DF8011040EA012000B200EE100AB8EECF
:1030B000C00ADFED650A80EE201A84ED001A9DF843
:1030C00002009DF8031040EA012000B200EE100A51
:1030D000B8EEC00ADFED5C0A80EE201A84ED011A1A
:1030E0009DF804009DF8051040EA012000B200EEB2
:1030F000100AB8EEC00ADFED540A80EE201A84ED03
:10310000021A83E003211E2013F05AFC8DF8000000
:1031100004211E2013F054FC8DF8010005211E200F
:1031200013F04EFC00E087E08DF8020006211E201F
:1031300013F046FC8DF8030007211E2013F040FC1D
:103140008DF8040008211E2013F03AFC8DF80500CC
:103150009DF801009DF8001040EA012000EE100AE1
:10316000B8EEC00AB0EE408A9DF803009DF8021048
:1031700040EA012000EE100AB8EEC00AB0EE409A14
:103180009DF805009DF8041040EA012000EE100AA9
:10319000B8EEC00AF0EE408A9FED2C0AB4EEC08A69
:1031A000F1EE10FA05DD9FED2A0A38EE400AB0EE86
:1031B000408A9FED260AF4EEC08AF1EE10FA05DD92
:1031C0009FED230A38EEC00AF0EE408A9FED1F0AF9
:1031D000B4EEC09AF1EE10FA05DD9FED1D0A39EE4E
:1031E000400AB0EE409A9FED1B0AC8EE000AC4EDFB
:1031F000000A9FED180AC8EE800AC4ED010A9FED8F
:10320000150AC9EE000AC4ED020A00BF124814F004
:10321000F3FA114890ED010A0948D0ED010A30EEA9
:10322000600A0E4880ED000A002004490880012051
:1032300002B0BDEC048B10BD0020F9E79A0E00200F
:10324000C86300208E0E002000803B4500FEFF4634
:1032500000FF7F4700408844D8630020940E002080
:103260003EB503460C46002017A52D68029517A50C
:103270002D68019516A52D68009501251570012C66
:1032800002D0022C04D101E0002103E0012101E081
:10329000022100BF00BF032B08D0042B02D0082B53
:1032A0000CD107E002AD6D5C15700AE001AD6D5CFC
:1032B000157006E01DF80150157002E06FF0070070
:1032C00000BF00BF3EBD000002010300070608006A
:1032D000242526002DE9F04F06460F4613464FF4ED
:1032E00096784FF01E09DFF884C0DFF884A041F61D
:1032F0009A1B0EB9002037E0072F01D1322033E0AE
:10330000B3F93CE0C64502DA4FEA094103E0B3F9FC
:103310003CE00EFB0BF181B1B3F838E00EFB0AF292
:1033200002EB5102B2FBF1F21204624502D8ACEB9F
:10333000020404E04FF4481401E04FF4C804C4F35D
:103340000745642D02DD4FF0640E00E0AE46BEF18D
:10335000320F06DD642D02DD4FF0640E03E0AE4651
:1033600001E04FF0320E7046BDE8F08F33B37500C8
:10337000CDCC3000F8B564201AF0D2FD4FF4A17620
:10338000AA2012F077FFAB2012F074FF39490878B9
:1033900012F070FF3749487812F06CFF3549887891
:1033A00012F068FF3349C87812F064FF3149097898
:1033B000304A527851402F4A927851402D4AD27863
:1033C00081EA020012F056FF00254FF6FF702A49ED
:1033D000088017E009E028480088401E2649088038
:1033E0000846008808B90020F8BD244814F0DDFE26
:1033F0000028F0D0214814F0C7FEC2B228466D1C48
:103400000DF80020032DE5DB00242CE0BB2012F09A
:1034100031FFDC2012F02EFF1949085D12F02AFF5F
:10342000174A611C505C12F025FF1549095D81F0B7
:10343000DC01134B621C9A5C81EA020012F01AFF55
:1034400000250DE000BF0D4814F0AFFE0028FAD0B3
:103450000A4814F099FEC2B228466D1C0DF80020EF
:10346000032DEFDBA41CB442D0D3DD2012F002FF09
:103470000120B9E76C350200A602002000E0004000
:103480007035020010B5164813F058FC154813F0BB
:1034900055FC012002F0E8FF40F2014002F0E4FF99
:1034A00003214FF0402003F067F805210E4814F087
:1034B00082FE0E4A4FF46121002014F0DFFE0A481C
:1034C00014F0BCFE1021084814F0BFFE084906485D
:1034D00014F0BFFE2021152004F07CFC10BD00007C
:1034E000000800F0001800F000C000400024F400C4
:1034F000717F010010B5154813F020FC144813F03B
:103500001DFC4FF0011002F0AFFF124802F0ACFFBB
:103510000321114803F030F80521104814F04BFE48
:103520000F4A4FF4E131012014F0A8FE0B4814F0CB
:1035300085FE1021094814F088FE0A49074814F056
:1035400088FE8021162004F045FC10BD010800F023
:10355000011800F0010401000050004000D00040BC
:103560000024F400C17F010010B51E4813F0E6FBF3
:103570001D4813F0E3FB1D481D490860081D006845
:1035800040F08000091D08600020091F08601948EC
:1035900002F06AFF184802F067FFC021174802F0E6
:1035A000EBFF13F09FFA044660234FF49642214646
:1035B000134814F003FE124814F040FE1021104886
:1035C00014F043FE0AF0E0FFFFF7D4FE0D49087047
:1035D0000D490B4814F03DFEA021312004F0FAFB08
:1035E00010BD0000030800F0021800F04B434F4CE0
:1035F0002075004001180300011C0300007000400A
:1036000000E00040920C0020F57F010010B5154845
:1036100013F094FB144813F091FB144802F024FFBC
:10362000134802F021FFC021124802F0A5FF13F059
:1036300059FA044660234FF4612221460E4814F0E3
:10364000BDFD0D4814F0FAFD10210B4814F0FDFDEE
:103650000A49094814F0FDFD20214B2004F0BAFB73
:1036600010BD0000020800F0031800F0011802006D
:10367000011C02000060004000F0004039800100A1
:1036800070B504460D461B4805801B4813F056FBD9
:103690001A4813F053FB1A481A490860081D0068BD
:1036A00040F08000091D08600020091F08601648CE
:1036B00002F0DAFE154802F0D7FE3021144802F07D
:1036C0005BFF13F00FFA064660232246314611488D
:1036D00014F074FD0F4814F0B1FD10210D4814F0E2
:1036E000B4FD0D490B4814F0B4FD40214E2004F008
:1036F00071FB70BD14050020030800F0061800F0EF
:103700004B434F4C2075004001100300011403008F
:1037100000700040002001408980010010B5774909
:103720005A2010F030FF7549086820F00041C1F1BF
:10373000FF41C90F002970D1704890ED000ABCEE1E
:10374000C00A10EE100A6E49087008460078012879
:103750002FD16C4813F0F2FA6B4813F0EFFA6B4874
:1037600002F082FE6A4802F07FFE0321694802F0FF
:1037700003FF13F0B7F9044660234FF416522146B5
:10378000654814F01BFD654811F0DBFD624814F03C
:1037900055FD1021604814F058FD61495E4814F051
:1037A00058FD60214F2004F015FB01205D49088081
:1037B000A2E053480078022830D1524813F0BEFAF4
:1037C000514813F0BBFA514802F04EFE504802F047
:1037D0004BFE03214F4802F0CFFE13F083F904465D
:1037E00060234FF4E13221464B4814F0E7FC4B488C
:1037F00011F0A7FD484814F021FD1021464814F0AF
:1038000024FD4749444814F024FD60214F2004F072
:10381000E1FA0120434908806EE03EE03848007834
:1038200003282FD1374813F089FA374813F086FA66
:10383000364802F019FE364802F016FE03213548DC
:1038400002F09AFE13F04EF9044660234FF4612211
:103850002146314814F0B2FC304811F072FD2E4878
:1038600014F0ECFC10212C4814F0EFFC2C492A48F1
:1038700014F0EFFC60214F2004F0ACFA012029493C
:10388000088039E01E480078042835D12548008892
:1038900090BB254814F04CFF2EE01A4813F04EFA66
:1038A000194813F04BFA194802F0DEFD184802F0EF
:1038B000DBFD0321174802F05FFE13F013F9044605
:1038C00060234FF416522146134814F077FC134836
:1038D00011F037FD104814F0B1FC10210E4814F01F
:1038E000B4FC0F490C4814F0B4FC60214F2004F0E4
:1038F00071FA01200B49088010BD0000B4090020B6
:10390000B2090020040800F0071800F001000400CC
:103910000104040000400240003001407C450020CA
:10392000DD80010016050020904E002070B52DEDC1
:10393000028BB0EE408A04460D4694ED030AB5EEC4
:10394000C00AF1EE10FA33D194ED040AB5EEC00AC4
:10395000F1EE10FA2CD194ED050AB5EEC00AF1EEA5
:1039600010FA25D194ED000AB5EEC00AF1EE10FA76
:103970001ED194ED010AB5EEC00AF1EE10FA17D18E
:1039800094ED020AB5EEC00AF1EE10FA10D184ED02
:10399000038A84ED048A84ED058A84ED008A84ED2F
:1039A000018A84ED028AB0EE480ABDEC028B70BD3C
:1039B00084ED028A95ED030AD4ED020A20EE200A76
:1039C000D5ED040A94ED011A00EE810AD5ED050A41
:1039D00094ED001A00EE810AD5ED010A94ED041A67
:1039E00000EEC10AD5ED020A94ED031A00EEC10AF9
:1039F00084ED050A94ED010A84ED000A94ED020AB3
:103A000084ED010A94ED040A84ED030A94ED050A9D
:103A100084ED040A002628E004F10C0000EB860087
:103A200090ED000A10EE101A084618F08BFA0128E3
:103A30000AD004EB860090ED000A10EE101A08463A
:103A400018F080FA01280ED184ED038A84ED048AEF
:103A500084ED058A84ED008A84ED018A84ED028A72
:103A6000B0EE480AA1E7701C86B2032ED4DB94EDB9
:103A7000050A9AE7F0B52DED048B83B0FE48006887
:103A800001281BD14FF47A731A46194618460CF0D8
:103A90000BFA0020F94908800821F94A0346B6EEDE
:103AA000000ACDE900210290C82240F6B831F5485D
:103AB000FEF7EFFA03B0BDEC048BF0BD13F050FF3E
:103AC0001BF038F8ED48008801287DD1EE480078D9
:103AD00001287AD1ED48B0F90000B0F57A7F15DC05
:103AE000EB48B0F90000B0F57A7F0FDCE948B0F997
:103AF0000000B0F57A7F09DCE748B0F90000B0F5C6
:103B00007A7F03DC6420E54908802CE0E4480078F3
:103B1000012814D1E348007828BB0020D749088049
:103B20000821D74A0346B6EE000ACDE900210290EB
:103B3000C82240F6B831D348FEF7ABFA13E0DA48B2
:103B40000078102808D0D84800780D280BD1D74825
:103B5000B0F90000A02806D14FF47A731A4619462E
:103B600018460CF0A1F9D2480088401CD0490880C2
:103B70000846008804280BDBC8480088012804DBBD
:103B8000C6480088401EC54908800020C8490880F2
:103B9000C2480088C0F164006421484390FBF1F002
:103BA00000F57A7000B2C3490880BC480088C0F1B3
:103BB00064006421484390FBF1F000F57A7000B294
:103BC000BD490880B54801E0F1E11FE00088C0F17F
:103BD00064006421484390FBF1F000F57A7000B274
:103BE000B6490880AD480088C0F1640064214843AC
:103BF00090FBF1F000F57A7000B2B149088013F043
:103C0000E5FC0AF02BFE0AF061FCE0E1AD4800782B
:103C100002287DD1AC48008800EE100AB8EE400AB8
:103C2000F7EE000A20EE200AA848D0ED8A0ABFEE7F
:103C3000001A01EE200AD0ED360AB7EE001A01EEA6
:103C4000200AD0EDDE0ABFEE001A01EE200ABDEE1A
:103C5000C00A10EE100A00B2964908809A480088FF
:103C600000EE100AB8EE400AF7EE000A20EE200A35
:103C70009648D0ED8A0AB7EE001A01EE200AD0ED80
:103C8000360ABFEE001A01EE200AD0EDDE0ABFEEC2
:103C9000001A01EE200ABDEEC00A10EE100A00B2B2
:103CA000854908808848008800EE100AB8EE400A6E
:103CB000F7EE000A20EE200A8448D0ED8A0AB7EE1B
:103CC000001A01EE200AD0ED360AB7EE001A01EE16
:103CD000200AD0EDDE0AB7EE001A01EE200ABDEE92
:103CE000C00A10EE100A00B27449088076480088B5
:103CF00000EE100AB8EE400AF7EE000A20EE200AA5
:103D00007248D0ED8A0ABFEE001A01EE200A00E0E8
:103D10003FE0D0ED360ABFEE001A01EE200AD0EDEA
:103D2000DE0AB7EE001A01EE200ABDEEC00A10EE60
:103D3000100A00B2624908805E48B0F9002040F6DF
:103D4000C41140F24C4017F02FFE5A4908805A48DF
:103D5000B0F9002040F6C41140F24C4017F024FEA8
:103D6000554908805548B0F9002040F6C41140F28A
:103D70004C4017F019FE514908805148B0F9002015
:103D800040F6C41140F24C4017F00EFE4C4908803A
:103D90000CE14F48008840F21A4188426ADB4A48E9
:103DA000008800EE100AB8EE400AF7EE000A20EE96
:103DB000200A4648D0ED8A0ABFEE001A01EE200A1A
:103DC000D0ED360AB7EE001A01EE200AD0EDDE0A79
:103DD000BFEE001A01EE200ABDEEC00A10EE100A76
:103DE00000B2344908803848008800EE100AB8EE66
:103DF000400AF7EE000A20EE200A3448D0ED8A0A85
:103E0000B7EE001A01EE200AD0ED360ABFEE001A16
:103E100001EE200AD0EDDE0ABFEE001A01EE200A04
:103E2000BDEEC00A10EE100A00B2234908802648F1
:103E3000008800EE100AB8EE400AF7EE000A20EE05
:103E4000200A2248D0ED8A0AB7EE001A01EE200AB5
:103E5000D0ED360AB7EE001A01EE200AD0EDDE0AE8
:103E6000B7EE001A01EE200ABDEEC00A10EE100AED
:103E700000B22FE055E00000600C00201803002085
:103E80000050024050140020AB0B0020460C0020D4
:103E9000480C00204A0C00204C0C0020700C002024
:103EA000E10E0020AA0B0020D20E0020DE0E002022
:103EB0006E0C00203E0C0020400C0020420C002024
:103EC000440C00204E0C00206C0C002060220020CE
:103ED0005C0C0020844908808448008800EE100AA9
:103EE000B8EE400AF7EE000A20EE200A8048D0ED36
:103EF0008A0ABFEE001A01EE200AD0ED360ABFEEA4
:103F0000001A01EE200AD0EDDE0AB7EE001A01EE2B
:103F1000200ABDEEC00A10EE100A00B275490880F2
:103F200015E07248008800B2734908806F48008825
:103F300000B2724908806D48008800B26A49088062
:103F40006A48008800B26B49088013F03FFB6A485A
:103F5000B0F9002040F6C41140F24C4017F024FDA7
:103F6000654908806548B0F9002040F6C41140F268
:103F70004C4017F019FD614908805B48B0F90020FA
:103F800040F6C41140F24C4017F00EFD564908802F
:103F90005848B0F9002040F6C41140F24C4017F0E8
:103FA00003FD5449088013F005FE00BF0FE04FF4F5
:103FB0007A7051490880514908804B4908804D4921
:103FC000088013F003FB0AF049FC0AF07FFA4A4824
:103FD000B0F900004A4908804848B0F90000494952
:103FE00008804148B0F90000474908804148B0F9CD
:103FF0000000464908804048B0F9002040F6C4114E
:10400000002017F0D1FC3C4908803C48B0F9002062
:1040100040F6C411002017F0C7FC38490880324828
:10402000B0F9002040F6C411002017F0BDFC2E4965
:1040300008803048B0F9002040F6C411002017F085
:10404000B3FC2C4908800846B0F900001DF07BF84D
:1040500041EC190B9FED2E0B53EC102B1DF0DAF8F1
:1040600041EC180B1DF042F884B21F48B0F9000073
:104070001DF069F841EC190B9FED250B53EC102B4B
:104080001DF0C8F841EC180B1DF030F885B21B4844
:10409000B0F900001DF057F841EC190B9FED1C0B17
:1040A00053EC102B1DF0B6F841EC180B1DF01EF868
:1040B00086B21148B0F900001DF045F841EC190B2B
:1040C0009FED130B53EC102B1DF0A4F841EC180BD3
:1040D0001DF00CF887B223462A46314638460BF0CD
:1040E000E3FE00BFE6E40000420C00206C0C002060
:1040F00060220020440C00203E0C0020400C0020D8
:10410000460C0020480C00204A0C00204C0C0020DB
:10411000000000000000F43F10B594480078944976
:10412000087094480078944908709448007894493D
:1041300008709448B0F85010B0F85600081A924928
:104140000989884203DC0220884908700CE08D4808
:10415000B0F85210B0F8560008448B4909898842DB
:1041600002DB0120814908708648B0F86010B0F881
:104170006600081A84494989884203DC0120834982
:10418000087004E000208149087008F0AFFA7D480B
:10419000B0F87010B0F87600081A7B498989884217
:1041A00003DC0220754908700CE07648B0F8741002
:1041B000B0F87600084474498989884202DB0120FE
:1041C0006E4908706F48B0F87410B0F87600081A9D
:1041D0006D498989884209DC6A48B0F87410B0F8E2
:1041E000760008446849898988420CDA6548B0F845
:1041F0007210B0F87600084463498989884202DB6E
:104200000120634908605F48B0F88010B0F886006C
:10421000081A5D49C989884203DC022055490870A3
:1042200010E05848B0F88210B0F8860008445649AB
:10423000C989884206DB01204E4908700AF00EFB4E
:104240000AF044F95348008801280DD113F0F8FA18
:104250005149087008460078022803D100204D49D2
:10426000088001E013F0B2F9444800784449097825
:1042700088420BD0494890ED000A494880EDFD0A7C
:104280003E480078012801D11AF020FC3748007818
:104290003749097888420CD034480078022802D186
:1042A00001204049087031480078012801D13D497A
:1042B0000870304800783049097888420CD02D4881
:1042C0000078022801D1374908702A48007801286F
:1042D00002D102203349087032480078012811D1F8
:1042E00022480078022809D12F4800882F490880E9
:1042F0002A4890ED000A2A4880EDFD0A002029494D
:10430000087006E027480078022802D100202549DD
:10431000087027480078022826D12648007818BB64
:1043200002F0CCF988B11D4890ED020A224880EDD8
:10433000010A1A4890ED010A204880ED010A02F0B6
:10434000A1F901201B4908700EE09FED1D0A1A48D3
:1043500080ED010A9FED1A0A184880ED010A02F06B
:1043600091F900201349087010BD00004E0C002088
:104370004F0C0020500C0020510C0020540C002049
:10438000550C00204431002036300020520C002013
:10439000600C002024030020680B0020483200201D
:1043A00060220020590C0020FA0200205A0C002044
:1043B000560C0020580C0020F0280020A0270020D8
:1043C0000000000001460A1F102A1BD2DFE802F09D
:1043D0000E0C101216181A1A141A1A1A1A1A080A97
:1043E0000A2011E006200FE004200DE002200BE07F
:1043F000012009E0072007E0092005E0032003E091
:10440000002001E0FF2000BF00BF70472DE9F04110
:104410008CB006460D460027B846AA208DF800004D
:10442000FF208DF80100F1208DF802006806000ED3
:104430008DF8030000240FE016F824106000001D22
:104440000DF8001036F82400C0F307216000401D6D
:104450000DF80010601CC4B2AC42EDDB002409E092
:104460001DF804003844C7B208EB070000F0FF084D
:10447000601CC4B26800001DA042F1DC6800001D91
:104480000DF800706800401D0DF800806800811D67
:10449000684613F039FF0CB0BDE8F08107E0022157
:1044A00001E04A1E91B20029FBD1421E90B20028C1
:1044B000F5D1704710B50446204619F01CFD10BD1B
:1044C0000748B0F90000002803DC01200549087006
:1044D00005E003480088401E00B20149088070478B
:1044E000DA0E0020DC0E002031B52DED020B2DED93
:1044F000048B0446B3EE0E0AB0EE408A9DED040A2A
:10450000B1EE400AF0EE408A9DED050AB0EE409A09
:10451000B1EE680ADFED1E0A80EE201A1D4890ED0C
:10452000000A21EE000AF0EE409A18F045F9DFED9E
:104530001A0A20EE200A84ED000A9FED150AC9EE42
:10454000000AF0EE609AB0EE690A18F035F9DFED76
:10455000120A20EE200A84ED010AD4ED000AB0EE22
:10456000600AB0EE481AF1EE480A19F08FFC84EDAB
:10457000000AD4ED010AB0EE600AB0EE481AF1EE7E
:10458000480A19F083FC84ED010ABDEC048B3EBDA2
:10459000902A7544080E0020E12E65422DE9F04175
:1045A00005460C462146284619F030FE0646601C9A
:1045B000C1B2284619F02AFE074647EA062000B293
:1045C000BDE8F08170B50026002414E021460020EB
:1045D00005F04AF900250AE03146761C0A4A505C8B
:1045E00005F08AF90220FFF765FF681CC5B2802D2F
:1045F000F2DB601CC4B2082CE8DB4FF4FA70FFF762
:1046000059FF05F07BF870BD9C2A020010B502200E
:10461000FBF7BEFE17F0D4FB0B48C46904F00C0096
:1046200080B10A4812F0C0FB0220FBF7B1FE17F080
:10463000C7FB0548C46904F00C0008B1022010BD96
:104640000120FCE70020FAE700F00A40005800F0E3
:1046500010B50F4800680F4908400F49884205D13E
:104660000B48006880B208B917F06EFB0B480C4984
:10467000086017F0A5FB0B4812F096FB0220FBF731
:1046800087FE17F09DFB06488038806910BD00004A
:1046900000E00F400000FF700000051001007BE308
:1046A00080F00A40005800F02DE9F04107460E4620
:1046B000144600BF2A48856905F001000028F9D199
:1046C000B00927494860C6F383008860A40835E034
:1046D00024480068244908402449884206D12148DA
:1046E000006880B210B9304617F04AFB1C493868A0
:1046F000486100BF1A48856905F001000028F9D11A
:1047000005F4887078B117480068174908401749C0
:10471000884205D11348006880B208B917F014FB2D
:104720002846BDE8F0813F1D641E3CB10C488068FE
:1047300020B90B484068401C09494860002CC7D18B
:1047400008480068084908400849884205D10548DA
:10475000006880B208B917F0F7FA01488069E0E70D
:1047600000F00A4000E00F400000FF70000005105C
:1047700010B58B090B4C6360C1F38303A3609208EF
:104780000DE0084B5B690360001D521E3AB1054BFA
:104790009B6823B9034B5B685B1C024C6360002A77
:1047A000EFD110BD00F00A4010B5034812F0C6FA70
:1047B000FFF72CFF10BD0000005800F02DE9F0417C
:1047C00004460D4617461E462246C52109480BF0F1
:1047D00057FB2A46C42107480BF052FB3A46822178
:1047E00004480BF04DFB3246832102480BF048FB96
:1047F000BDE8F081008002402DE9F0412DED048BF1
:10480000264988881CF0B6FC41EC190B9FED240B5F
:1048100053EC102B1CF0FEFC41EC180B1CF066FC5A
:1048200084B21E4988881CF0A5FC41EC190B9FED51
:104830001C0B53EC102B1CF0EDFC41EC180B1CF086
:1048400055FC85B2154988881CF094FC41EC190B85
:104850009FED130B53EC102B1CF0DCFC41EC180B00
:104860001CF044FC86B20D4988881CF083FC41ECA6
:10487000190B9FED0B0B53EC102B1CF0CBFC41ECF8
:10488000180B1CF033FC87B223462A4631463846C3
:104890000BF00AFBBDEC048BBDE8F0814A30002030
:1048A000000000000000F43F0EB54448008800EE10
:1048B000100AB8EE400ADFED420AB4EEE00AF1EE6B
:1048C00010FA22D83F4890ED000ADFED3F0AB4EE1F
:1048D000E00AF1EE10FA18DB3C4890ED000ADFED3B
:1048E0003C0AB4EEE00AF1EE10FA0EDB394890ED26
:1048F000000ADFED390AB4EEE00AF1EE10FA04D84E
:1049000036480088401C354908802C48008800EE55
:10491000100AB8EE400ADFED2A0AB4EEE00AF1EE22
:1049200010FA49D8274890ED000ADFED270AB4EEC7
:10493000E00AF1EE10FA3FDB244890ED000ADFEDCB
:10494000240AB4EEE00AF1EE10FA35DB214890EDCE
:10495000000ADFED210AB4EEE00AF1EE10FA2BD8DE
:104960001E480088B0F57A7F26DD1D48008818BBF8
:10497000B7EE000A1B4880ED000A002017490880A6
:10498000194908801949174890ED000A542017F07A
:10499000E9F800200221164A03469FED160ACDE9E8
:1049A000002102904FF4FA7241F288311248FDF76B
:1049B00070FB0F20114908800EBD0000FA02002094
:1049C000004083440403002000001643000300203D
:1049D0000000D241FC0200200000D2C12A010020C8
:1049E000180300202C010020260300203C46002054
:1049F00000500240CDCC4C3E28140020560200202E
:104A000008F0BEF80BF0E4F903F0CCF8642019F0DC
:104A100087FA25499FED250A542017F0A3F842E0B4
:104A2000FFF7EAFE0021084604F094FF0121002070
:104A300004F090FF1EA20021084604F0D1FE0221DE
:104A4000002004F087FF0321002004F083FF1CA254
:104A50000221002004F0C4FE0421002004F07AFFAB
:104A60000521002004F076FF19A20421002004F0A3
:104A7000B7FE1AA20421502004F080FE1948808855
:104A800000EE900AF8EE600AB0EE600A05215020B0
:104A90001BF048FF0621002004F05CFF12A2062153
:104AA000002004F06BFEBBE73C4600200000000045
:104AB000506C65617365204D6F7665205468720097
:104AC000446F776E205768656E20455343000000A1
:104AD0004265657020426565700000005468723A56
:104AE000000000004A3000205265706F7765722028
:104AF0005768656E205365742055700010B52DED14
:104B00000C8B84B00020019002900390FA4AA2F12D
:104B10003401A1F10C0002F0BFFEF84890ED000A4C
:104B2000DFEDF70A60EE200A9FEDF61A80EE810AAB
:104B3000F548D0ED000AF048403890ED031A10EE29
:104B4000810AF24880ED000AEC4890ED010ADFEDA1
:104B5000EC0A60EE200A9FEDEB1A80EE810AEA482B
:104B6000D0ED010AE448403890ED041A10EE810AB5
:104B7000E64880ED010AE14890ED020ADFEDE00A27
:104B800060EE200A9FEDDF1A80EE810ADE48D0ED4C
:104B9000020AD948403890ED051A10EE810ADB4828
:104BA00080ED020A90ED000AF0EE408A90ED010AD5
:104BB000B0EE409A90ED020AB0EE408A69EE090A22
:104BC00048EE080AB0EE600A19F07AFD20EE280AD5
:104BD00010EE104A20461CF013FE41EC1C0BB0EE08
:104BE0004C0AF0EE6C0A17F083FBB0EE40BAF0EE20
:104BF00060BA9FEDC70B53EC102B51EC1B0B1CF054
:104C000009FB41EC1A0B1CF003F8C349086068EE7D
:104C1000A80A48EE080AB0EE600A19F051FD20EE2D
:104C2000090A10EE104A20461CF0EAFD41EC1C0B6C
:104C3000B0EE4C0AF0EE6C0A17F05AFBB0EE40BA38
:104C4000F0EE60BA9FEDB50B53EC102B51EC1B0B43
:104C50001CF0E0FA41EC1A0B1BF0DAFFB1490860D6
:104C6000084690ED000ADFEDB00A20EE200A10EEB3
:104C7000101A08461CF0C4FD41EC1B0BB0EE4B0AA9
:104C8000F0EE6B0A18F080FAB0EE40AAF0EE60AADF
:104C900051EC1A0B1BF0BCFFA4490860A14890ED31
:104CA000000ADFEDA10A20EE200A10EE101A0846D5
:104CB0001CF0A6FD41EC1B0BB0EE4B0AF0EE6B0AAC
:104CC00017F02AFEB0EE40AAF0EE60AA51EC1A0BE3
:104CD0001BF09EFF964908608F4890ED000ADFEDBB
:104CE000920A20EE200A10EE101A08461CF088FDE9
:104CF00041EC1B0BB0EE4B0AF0EE6B0A18F044FAD5
:104D0000B0EE40AAF0EE60AA51EC1A0B1BF080FF47
:104D100088490860804890ED000ADFED830A20EEA4
:104D2000200A10EE101A08461CF06AFD41EC1B0B1D
:104D3000B0EE4B0AF0EE6B0A17F0EEFDB0EE40AAB3
:104D4000F0EE60AA51EC1A0B1BF062FF7A49086082
:104D500008E0052019F0E4F867482838FEF758F90C
:104D600076490870754800780028F2D062484038CB
:104D700090ED060A7248D0ED000A30EE600A8DED23
:104D8000010A5D48403890ED070A6D48D0ED010AF0
:104D900030EE600A8DED020A5748403890ED080A5F
:104DA0006748D0ED020A30EE600A8DED030A9DEDF2
:104DB000020A5F48D0ED000A20EE200ADDED030A6A
:104DC0005A4890ED001A00EEC10A5E4880ED010AD3
:104DD0009DED010A5848D0ED000A20EE200ADDEDD5
:104DE000020A544890ED001A60EE810A4F4890ED97
:104DF000001A00EE810ADDED030A4E4890ED001A1C
:104E000060EE810A4A4890ED001A00EE810A4D4892
:104E100080ED000A90ED010A10EE101A08461CF011
:104E2000EFFC41EC1C0B474890ED000A10EE101A05
:104E300008461CF0E5FC41EC1D0BB0EE4C1AF0EE00
:104E40006C1AB0EE4D0AF0EE6D0A17F0BDFBB0EE35
:104E500040BAF0EE60BA9FED3C0B53EC102B51ECD6
:104E60001B0B1CF0D7F941EC1A0B1BF0D1FE384993
:104E70000860084690ED000AB5EEC00AF1EE10FA9F
:104E800007D290ED000ADFED330A30EE200A80ED04
:104E9000000A9FED301ADFED300A2D4890ED000A30
:104EA00018F0F4FF2A4880ED000A90ED000A2B4824
:104EB00080ED000A184890ED000ADFED1B0A20EE95
:104EC000200A274880ED000A164890ED000ADFED21
:104ED000160A20EE200A234880ED000A1C4890EDB7
:104EE000000ADFED110A20EE200A1F4880ED000ABB
:104EF00004B0BDEC0C8B10BD784300200060002096
:104F0000000000460AE81C41E40D00204860002033
:104F10006666666666A64CC0D40D00206666666648
:104F200066A64C40D00D002035FA8E3CFC0D0020CA
:104F3000080E0020000E00200C0E0020140E002091
:104F4000302100203402002000000060E3A54C4026
:104F5000D80D00200000B44300000000F80D002030
:104F60001C0E0020180E0020200E002000B599B065
:104F70000020129013901490FE4890ED000ADFED8F
:104F8000FE0A60EE200A9FEDFD1A80EE810AFC48C1
:104F9000D0ED000AFB4890ED031A10EE810AFA48A2
:104FA00080ED000AF34890ED010ADFEDF30A60EEB0
:104FB000200A9FEDF21A80EE810AF148D0ED010A35
:104FC000F04890ED041A10EE810AEF4880ED010AD6
:104FD000E84890ED020ADFEDE80A60EE200A9FED56
:104FE000E71A80EE810AE648D0ED020AE54890ED26
:104FF000051A10EE810AE44880ED020A90ED000ADD
:105000008DED170A90ED010A8DED160A90ED020A5A
:105010008DED150A9DED160A60EE000A9DED150A4C
:1050200040EE000ACDED0A0A9DED0A0A19F048FB90
:10503000DDED170A20EE200A8DED0B0A0B981CF00F
:10504000DFFBCDE90C019DED0C0B17F051F98DED57
:105050000E0B9FEDCE0B53EC102B9DED0E0B51EC78
:10506000100B1CF0D7F8CDE910019DED100B51ECA1
:10507000100B1BF0CDFDC74908609DED170A20EE0F
:10508000000ADDED150A00EEA00A8DED0A0A9DED7D
:105090000A0A19F015FBDDED160A20EE200A8DED47
:1050A0000B0A0B981CF0ACFBCDE90C019DED0C0B31
:1050B00017F01EF98DED0E0B9FEDB70B53EC102B77
:1050C0009DED0E0B51EC100B1CF0A4F8CDE9100176
:1050D0009DED100B51EC100B1BF09AFDB0490860D0
:1050E000084690ED000ADFEDAF0A20EE200A8DEDB4
:1050F0000D0A0D981CF084FBCDE90E019DED0E0B01
:1051000018F042F88DED100B9DED100B51EC100BCB
:105110001BF07EFDA4490860A14890ED000ADFED78
:10512000A10A20EE200A8DED0D0A0D981CF068FBF7
:10513000CDE90E019DED0E0B17F0EEFB8DED100B82
:105140009DED100B51EC100B1BF062FD97490860B0
:10515000904890ED000ADFED930A20EE200A8DEDD5
:105160000D0A0D981CF04CFBCDE90E019DED0E0BC8
:1051700018F00AF88DED100B9DED100B51EC100B93
:105180001BF046FD8A4908608248D0ED000A9FED79
:10519000850A20EE800A8DED0D0A0D981CF030FB7B
:1051A000CDE90E019DED0E0B17F0B6FB8DED100B4A
:1051B0009DED100B51EC100B1BF02AFD7D49086092
:1051C0007048D0ED060A7C4890ED000A30EEC00A27
:1051D0008DED120A6B48D0ED070A774890ED010A71
:1051E00030EEC00A8DED130A6648D0ED080A724809
:1051F00090ED020A30EEC00A8DED140ADDED120AC0
:10520000084690ED000A20EE800ADDED140A684899
:1052100090ED001A00EE810A684880ED000A9DEDCD
:10522000120A6148D0ED000A20EE200A6048D0ED55
:10523000000A20EE200A9DED131A5C48D0ED000A0A
:1052400001EE200ADDED140A574890ED001A60EED9
:10525000810A084690ED001A00EEC10A574880ED19
:10526000010A406809901CF0CBFACDE90C015348C3
:10527000006809901CF0C4FACDE90A019DED0C1BF1
:105280009DED0A0B17F0A0F98DED0E0B9FED4C0B69
:1052900053EC102B9DED0E0B51EC100B1BF0BAFFD5
:1052A000CDE910019DED100B51EC100B1BF0B0FC83
:1052B000454908609FED451ADFED450A084690ED27
:1052C000000A18F0E3FD404880ED000A90ED000A66
:1052D000404880ED000A2F4890ED000ADFED310ACA
:1052E00020EE200A3C4880ED000A2D4890ED000A8F
:1052F000DFED2C0A20EE200A384880ED000A324803
:1053000090ED000ADFED270A20EE200A344880EDF8
:10531000000A3248D0ED000AB0EE001A80EE810A91
:105320008DED050A05981CF06BFACDE906019DED9F
:10533000060B17F029FF8DED0A0B2748D0ED000A68
:10534000B0EE001A80EE810A8DED010A01981CF082
:1053500057FACDE902019DED020B17F015FF8DED17
:10536000060B1F4890ED001AF0EE000A81EE200AAD
:1053700038E0000000600020000000460AE81C4100
:10538000E40D002038430020486000206666666611
:1053900066A64CC0D40D00206666666666A64C40C4
:1053A000D00D002035FA8E3CFC0D0020080E0020A8
:1053B000000E00200C0E00203021002034020020BE
:1053C00000000060E3A54C40D80D00200000B4436D
:1053D00000000000F80D00201C0E0020180E002018
:1053E000200E00208DED010A01981CF009FACDE98C
:1053F00002019DED020B17F0C7FE8DED040B9DED34
:10540000060B53EC102B9DED040B51EC100B1BF015
:1054100001FFCDE908019DED0A0B53EC102B9DED2A
:10542000080B51EC100B1BF0F5FECDE90E01FE4808
:10543000D0ED000AB0EE001A80EE810A8DED050A6B
:1054400005981CF0DDF9CDE906019DED060B17F07E
:1054500063FA8DED0A0BF548D0ED000AB0EE001AA4
:1054600080EE810A8DED010A01981CF0C9F9CDE9A1
:1054700002019DED020B17F04FFA8DED060BEC4883
:10548000D0ED000AB0EE001A80EE810A8DED010A1F
:1054900001981CF0B5F9CDE902019DED020B17F062
:1054A0003BFA8DED040B9DED060B53EC102B9DED9F
:1054B000040B51EC100B1BF0ADFECDE908019DED86
:1054C0000A0B53EC102B9DED080B51EC100B1BF04D
:1054D000A1FECDE90C019DED0E0B53EC102B9DEDC3
:1054E0000C0B51EC100B1BF0C5FBCDE910019DED31
:1054F000100B51EC100B1BF08BFBCE490860CA4817
:10550000D0ED000AB0EE001A80EE810A8DED050A9A
:1055100005981CF075F9CDE906019DED060B17F015
:10552000FBF98DED0A0BC14890ED001AF0EE000A70
:1055300081EE200A8DED010A01981CF061F9CDE998
:1055400002019DED020B17F01FFE8DED060BB84812
:10555000D0ED000AB0EE001A80EE810A8DED010A4E
:1055600001981CF04DF9CDE902019DED020B17F0F9
:105570000BFE8DED040B9DED060B53EC102B9DEDFA
:10558000040B51EC100B1BF045FECDE908019DED1D
:105590000A0B53EC102B9DED080B51EC100B1BF07C
:1055A00039FECDE90E01A048D0ED000AB0EE001A98
:1055B00080EE810A8DED050A05981CF021F9CDE9F0
:1055C00006019DED060B17F0DFFD8DED0A0B9748E8
:1055D000D0ED000AB0EE001A80EE810A8DED010ACE
:1055E00001981CF00DF9CDE902019DED020B17F0B9
:1055F00093F98DED060B8E48D0ED000AB0EE001A3F
:1056000080EE810A8DED010A01981CF0F9F8CDE9D0
:1056100002019DED020B17F07FF98DED040B9DED5E
:10562000060B53EC102B9DED040B51EC100B1BF0F3
:10563000F1FDCDE908019DED0A0B53EC102B9DED1A
:10564000080B51EC100B1BF0E5FDCDE90C019DEDB5
:105650000E0B53EC102B9DED0C0B51EC100B1BF0B3
:10566000E5FFCDE910019DED100B51EC100B1BF087
:10567000CFFA714908606C48D0ED000AB0EE001A0C
:1056800080EE810A8DED050A05981CF0B9F8CDE988
:1056900006019DED060B17F077FD8DED0A0B6348B3
:1056A000D0ED000AB0EE001A80EE810A8DED010AFD
:1056B00001981CF0A5F8CDE902019DED020B17F051
:1056C0002BF98DED060B5A48D0ED000AB0EE001A0A
:1056D00080EE810A8DED010A01981CF091F8CDE968
:1056E00002019DED020B17F04FFD8DED040B9DEDBA
:1056F000060B53EC102B9DED040B51EC100B1BF023
:1057000089FDCDE908019DED0A0B53EC102B9DEDB1
:10571000080B51EC100B1BF07DFDCDE90E0142484A
:10572000D0ED000AB0EE001A80EE810A8DED050A78
:1057300005981CF065F8CDE906019DED060B17F004
:10574000EBF88DED0A0B3948D0ED000AB0EE001AE7
:1057500080EE810A8DED010A01981CF051F8CDE927
:1057600002019DED020B17F00FFD8DED060B304889
:10577000D0ED000AB0EE001A80EE810A8DED010A2C
:1057800001981CF03DF8CDE902019DED020B17F0E8
:10579000C3F88DED040B9DED060B53EC102B9DED26
:1057A000040B51EC100B1BF035FDCDE908019DED0C
:1057B0000A0B53EC102B9DED080B51EC100B1BF05A
:1057C00029FDCDE90C019DED0E0B53EC102B9DED49
:1057D0000C0B51EC100B1BF04DFACDE910019DEDB7
:1057E000100B51EC100B1BF013FA144908600E4813
:1057F000D0ED000AB0EE001A80EE810A8DED050AA8
:1058000005981BF0FDFFCDE906019DED060B17F095
:10581000BBFC8DED0A0B0548D0ED000AB0EE001A76
:1058200080EE810A0CE00000180E00201C0E002003
:10583000200E0020400E0020440E0020480E0020C4
:105840008DED010A01981BF0DBFFCDE902019DED12
:10585000020B17F099FC8DED060B6F4890ED001AC6
:10586000F0EE000A81EE200A8DED010A01981BF08E
:10587000C7FFCDE902019DED020B17F04DF88DED4C
:10588000040B9DED060B53EC102B9DED040B51EC1E
:10589000100B1BF0BFFCCDE908019DED0A0B53EC8A
:1058A000102B9DED080B51EC100B1BF0B3FCCDE958
:1058B0000E015A48D0ED000AB0EE001A80EE810ABF
:1058C0008DED050A05981BF09BFFCDE906019DEDC6
:1058D000060B17F021F88DED0A0B5148D0ED000AA8
:1058E000B0EE001A80EE810A8DED010A01981BF0DE
:1058F00087FFCDE902019DED020B17F00DF88DED4C
:10590000060B4548D0ED000AB0EE001A80EE810A81
:105910008DED010A01981BF073FFCDE902019DEDA9
:10592000020B17F031FC8DED040B9DED060B53ECD3
:10593000102B9DED040B51EC100B1BF06BFCCDE913
:1059400008019DED0A0B53EC102B9DED080B51EC5B
:10595000100B1BF05FFCCDE90C019DED0E0B53EC21
:10596000102B9DED0C0B51EC100B1BF05FFECDE9E5
:1059700010019DED100B51EC100B1BF049F929495A
:105980000860092011902AE0274890ED000A274975
:10599000119801EB800080ED000A254890ED000A87
:1059A00001F12800119900EB810080ED000A2148E7
:1059B00090ED000A1D485030119900EB810080EDF8
:1059C000000A184890ED000A18487830119900EB49
:1059D000810080ED000A1198401E00B211901198CC
:1059E0000028D1DC104890ED000A104880ED000A34
:1059F0000F4890ED000A0D4880ED0A0A0D4890ED21
:105A0000000A0A4880ED140A064890ED000A07488B
:105A100080ED1E0A19B000BD200E0020180E0020D7
:105A20001C0E00204C0E0020400E0020605F002065
:105A3000440E0020480E00200348006840F4700027
:105A4000014908607047000088ED00E003480068E5
:105A500040F04040014908607047000034EF00E02A
:105A600070B52DED028B0446B0EE408AF0EE608AF0
:105A70000025FE4801F046FA40F2DC50FC4908805F
:105A8000FA4890ED020ADFEDFB0A20EE200ADFED76
:105A9000FA0AB4EEE00AF1EE10FA00DB0125F7484D
:105AA0000078A04200D00125F448047024B1012CF4
:105AB00079D0022C78D158E1F14890ED270AB5EE63
:105AC000C00AF1EE10FA23D1EE4890EDFD0AB5EED2
:105AD000C00AF1EE10FA01D0012D05D1EA4890ED8F
